{
  "_format": "hh-sol-artifact-1",
  "contractName": "Altarian42",
  "sourceName": "code/contracts/Altarian42.sol",
  "abi": [
    {
      "inputs": [
        {
          "internalType": "uint256",
          "name": "cap",
          "type": "uint256"
        },
        {
          "internalType": "uint256",
          "name": "reward",
          "type": "uint256"
        }
      ],
      "stateMutability": "nonpayable",
      "type": "constructor"
    },
    {
      "inputs": [
        {
          "internalType": "uint256",
          "name": "increasedSupply",
          "type": "uint256"
        },
        {
          "internalType": "uint256",
          "name": "cap",
          "type": "uint256"
        }
      ],
      "name": "ERC20ExceededCap",
      "type": "error"
    },
    {
      "inputs": [
        {
          "internalType": "address",
          "name": "spender",
          "type": "address"
        },
        {
          "internalType": "uint256",
          "name": "allowance",
          "type": "uint256"
        },
        {
          "internalType": "uint256",
          "name": "needed",
          "type": "uint256"
        }
      ],
      "name": "ERC20InsufficientAllowance",
      "type": "error"
    },
    {
      "inputs": [
        {
          "internalType": "address",
          "name": "sender",
          "type": "address"
        },
        {
          "internalType": "uint256",
          "name": "balance",
          "type": "uint256"
        },
        {
          "internalType": "uint256",
          "name": "needed",
          "type": "uint256"
        }
      ],
      "name": "ERC20InsufficientBalance",
      "type": "error"
    },
    {
      "inputs": [
        {
          "internalType": "address",
          "name": "approver",
          "type": "address"
        }
      ],
      "name": "ERC20InvalidApprover",
      "type": "error"
    },
    {
      "inputs": [
        {
          "internalType": "uint256",
          "name": "cap",
          "type": "uint256"
        }
      ],
      "name": "ERC20InvalidCap",
      "type": "error"
    },
    {
      "inputs": [
        {
          "internalType": "address",
          "name": "receiver",
          "type": "address"
        }
      ],
      "name": "ERC20InvalidReceiver",
      "type": "error"
    },
    {
      "inputs": [
        {
          "internalType": "address",
          "name": "sender",
          "type": "address"
        }
      ],
      "name": "ERC20InvalidSender",
      "type": "error"
    },
    {
      "inputs": [
        {
          "internalType": "address",
          "name": "spender",
          "type": "address"
        }
      ],
      "name": "ERC20InvalidSpender",
      "type": "error"
    },
    {
      "anonymous": false,
      "inputs": [
        {
          "indexed": true,
          "internalType": "address",
          "name": "owner",
          "type": "address"
        },
        {
          "indexed": true,
          "internalType": "address",
          "name": "spender",
          "type": "address"
        },
        {
          "indexed": false,
          "internalType": "uint256",
          "name": "value",
          "type": "uint256"
        }
      ],
      "name": "Approval",
      "type": "event"
    },
    {
      "anonymous": false,
      "inputs": [
        {
          "indexed": true,
          "internalType": "address",
          "name": "from",
          "type": "address"
        },
        {
          "indexed": true,
          "internalType": "address",
          "name": "to",
          "type": "address"
        },
        {
          "indexed": false,
          "internalType": "uint256",
          "name": "value",
          "type": "uint256"
        }
      ],
      "name": "Transfer",
      "type": "event"
    },
    {
      "inputs": [
        {
          "internalType": "address",
          "name": "owner",
          "type": "address"
        },
        {
          "internalType": "address",
          "name": "spender",
          "type": "address"
        }
      ],
      "name": "allowance",
      "outputs": [
        {
          "internalType": "uint256",
          "name": "",
          "type": "uint256"
        }
      ],
      "stateMutability": "view",
      "type": "function"
    },
    {
      "inputs": [
        {
          "internalType": "address",
          "name": "spender",
          "type": "address"
        },
        {
          "internalType": "uint256",
          "name": "value",
          "type": "uint256"
        }
      ],
      "name": "approve",
      "outputs": [
        {
          "internalType": "bool",
          "name": "",
          "type": "bool"
        }
      ],
      "stateMutability": "nonpayable",
      "type": "function"
    },
    {
      "inputs": [
        {
          "internalType": "address",
          "name": "account",
          "type": "address"
        }
      ],
      "name": "balanceOf",
      "outputs": [
        {
          "internalType": "uint256",
          "name": "",
          "type": "uint256"
        }
      ],
      "stateMutability": "view",
      "type": "function"
    },
    {
      "inputs": [],
      "name": "blockReward",
      "outputs": [
        {
          "internalType": "uint256",
          "name": "",
          "type": "uint256"
        }
      ],
      "stateMutability": "view",
      "type": "function"
    },
    {
      "inputs": [
        {
          "internalType": "uint256",
          "name": "value",
          "type": "uint256"
        }
      ],
      "name": "burn",
      "outputs": [],
      "stateMutability": "nonpayable",
      "type": "function"
    },
    {
      "inputs": [
        {
          "internalType": "address",
          "name": "account",
          "type": "address"
        },
        {
          "internalType": "uint256",
          "name": "value",
          "type": "uint256"
        }
      ],
      "name": "burnFrom",
      "outputs": [],
      "stateMutability": "nonpayable",
      "type": "function"
    },
    {
      "inputs": [],
      "name": "cap",
      "outputs": [
        {
          "internalType": "uint256",
          "name": "",
          "type": "uint256"
        }
      ],
      "stateMutability": "view",
      "type": "function"
    },
    {
      "inputs": [],
      "name": "decimals",
      "outputs": [
        {
          "internalType": "uint8",
          "name": "",
          "type": "uint8"
        }
      ],
      "stateMutability": "view",
      "type": "function"
    },
    {
      "inputs": [],
      "name": "destroy",
      "outputs": [],
      "stateMutability": "nonpayable",
      "type": "function"
    },
    {
      "inputs": [],
      "name": "name",
      "outputs": [
        {
          "internalType": "string",
          "name": "",
          "type": "string"
        }
      ],
      "stateMutability": "view",
      "type": "function"
    },
    {
      "inputs": [],
      "name": "owner",
      "outputs": [
        {
          "internalType": "address payable",
          "name": "",
          "type": "address"
        }
      ],
      "stateMutability": "view",
      "type": "function"
    },
    {
      "inputs": [
        {
          "internalType": "uint256",
          "name": "reward",
          "type": "uint256"
        }
      ],
      "name": "setBlockReward",
      "outputs": [],
      "stateMutability": "nonpayable",
      "type": "function"
    },
    {
      "inputs": [],
      "name": "symbol",
      "outputs": [
        {
          "internalType": "string",
          "name": "",
          "type": "string"
        }
      ],
      "stateMutability": "view",
      "type": "function"
    },
    {
      "inputs": [],
      "name": "totalSupply",
      "outputs": [
        {
          "internalType": "uint256",
          "name": "",
          "type": "uint256"
        }
      ],
      "stateMutability": "view",
      "type": "function"
    },
    {
      "inputs": [
        {
          "internalType": "address",
          "name": "to",
          "type": "address"
        },
        {
          "internalType": "uint256",
          "name": "value",
          "type": "uint256"
        }
      ],
      "name": "transfer",
      "outputs": [
        {
          "internalType": "bool",
          "name": "",
          "type": "bool"
        }
      ],
      "stateMutability": "nonpayable",
      "type": "function"
    },
    {
      "inputs": [
        {
          "internalType": "address",
          "name": "from",
          "type": "address"
        },
        {
          "internalType": "address",
          "name": "to",
          "type": "address"
        },
        {
          "internalType": "uint256",
          "name": "value",
          "type": "uint256"
        }
      ],
      "name": "transferFrom",
      "outputs": [
        {
          "internalType": "bool",
          "name": "",
          "type": "bool"
        }
      ],
      "stateMutability": "nonpayable",
      "type": "function"
    }
  ],
  "bytecode": "0x60a06040523480156200001157600080fd5b506040516200230238038062002302833981810160405281019062000037919062000738565b670de0b6b3a7640000826200004d9190620007ae565b6040518060400160405280600881526020017f416c74617269616e0000000000000000000000000000000000000000000000008152506040518060400160405280600381526020017f41343200000000000000000000000000000000000000000000000000000000008152508160039081620000ca919062000a69565b508060049081620000dc919062000a69565b50505060008103620001285760006040517f392e1e270000000000000000000000000000000000000000000000000000000081526004016200011f919062000b93565b60405180910390fd5b80608081815250505033600560006101000a81548173ffffffffffffffffffffffffffffffffffffffff021916908373ffffffffffffffffffffffffffffffffffffffff160217905550620001b1600560009054906101000a900473ffffffffffffffffffffffffffffffffffffffff166a03796274caf64c71000000620001ca60201b60201c565b620001c2816200025760201b60201c565b505062000d8e565b600073ffffffffffffffffffffffffffffffffffffffff168273ffffffffffffffffffffffffffffffffffffffff16036200023f5760006040517fec442f0500000000000000000000000000000000000000000000000000000000815260040162000236919062000bf5565b60405180910390fd5b62000253600083836200030960201b60201c565b5050565b600560009054906101000a900473ffffffffffffffffffffffffffffffffffffffff1673ffffffffffffffffffffffffffffffffffffffff163373ffffffffffffffffffffffffffffffffffffffff1614620002ea576040517f08c379a0000000000000000000000000000000000000000000000000000000008152600401620002e19062000c99565b60405180910390fd5b670de0b6b3a764000081620003009190620007ae565b60068190555050565b600073ffffffffffffffffffffffffffffffffffffffff168373ffffffffffffffffffffffffffffffffffffffff16141580156200037357504173ffffffffffffffffffffffffffffffffffffffff168273ffffffffffffffffffffffffffffffffffffffff1614155b8015620003ad5750600073ffffffffffffffffffffffffffffffffffffffff164173ffffffffffffffffffffffffffffffffffffffff1614155b15620003c457620003c3620003dc60201b60201c565b5b620003d7838383620003f260201b60201c565b505050565b620003f041600654620001ca60201b60201c565b565b62000405838383620004b460201b60201c565b600073ffffffffffffffffffffffffffffffffffffffff168373ffffffffffffffffffffffffffffffffffffffff1603620004af5760006200044c620006e460201b60201c565b9050600062000460620006ee60201b60201c565b905081811115620004ac5780826040517f9e79f854000000000000000000000000000000000000000000000000000000008152600401620004a392919062000ccc565b60405180910390fd5b50505b505050565b600073ffffffffffffffffffffffffffffffffffffffff168373ffffffffffffffffffffffffffffffffffffffff16036200050a578060026000828254620004fd919062000cf9565b92505081905550620005e0565b60008060008573ffffffffffffffffffffffffffffffffffffffff1673ffffffffffffffffffffffffffffffffffffffff1681526020019081526020016000205490508181101562000599578381836040517fe450d38c000000000000000000000000000000000000000000000000000000008152600401620005909392919062000d34565b60405180910390fd5b8181036000808673ffffffffffffffffffffffffffffffffffffffff1673ffffffffffffffffffffffffffffffffffffffff16815260200190815260200160002081905550505b600073ffffffffffffffffffffffffffffffffffffffff168273ffffffffffffffffffffffffffffffffffffffff16036200062b578060026000828254039250508190555062000678565b806000808473ffffffffffffffffffffffffffffffffffffffff1673ffffffffffffffffffffffffffffffffffffffff168152602001908152602001600020600082825401925050819055505b8173ffffffffffffffffffffffffffffffffffffffff168373ffffffffffffffffffffffffffffffffffffffff167fddf252ad1be2c89b69c2b068fc378daa952ba7f163c4a11628f55a4df523b3ef83604051620006d7919062000d71565b60405180910390a3505050565b6000608051905090565b6000600254905090565b600080fd5b6000819050919050565b6200071281620006fd565b81146200071e57600080fd5b50565b600081519050620007328162000707565b92915050565b60008060408385031215620007525762000751620006f8565b5b6000620007628582860162000721565b9250506020620007758582860162000721565b9150509250929050565b7f4e487b7100000000000000000000000000000000000000000000000000000000600052601160045260246000fd5b6000620007bb82620006fd565b9150620007c883620006fd565b9250828202620007d881620006fd565b91508282048414831517620007f257620007f16200077f565b5b5092915050565b600081519050919050565b7f4e487b7100000000000000000000000000000000000000000000000000000000600052604160045260246000fd5b7f4e487b7100000000000000000000000000000000000000000000000000000000600052602260045260246000fd5b600060028204905060018216806200087b57607f821691505b60208210810362000891576200089062000833565b5b50919050565b60008190508160005260206000209050919050565b60006020601f8301049050919050565b600082821b905092915050565b600060088302620008fb7fffffffffffffffffffffffffffffffffffffffffffffffffffffffffffffffff82620008bc565b620009078683620008bc565b95508019841693508086168417925050509392505050565b6000819050919050565b60006200094a620009446200093e84620006fd565b6200091f565b620006fd565b9050919050565b6000819050919050565b620009668362000929565b6200097e620009758262000951565b848454620008c9565b825550505050565b600090565b6200099562000986565b620009a28184846200095b565b505050565b5b81811015620009ca57620009be6000826200098b565b600181019050620009a8565b5050565b601f82111562000a1957620009e38162000897565b620009ee84620008ac565b81016020851015620009fe578190505b62000a1662000a0d85620008ac565b830182620009a7565b50505b505050565b600082821c905092915050565b600062000a3e6000198460080262000a1e565b1980831691505092915050565b600062000a59838362000a2b565b9150826002028217905092915050565b62000a7482620007f9565b67ffffffffffffffff81111562000a905762000a8f62000804565b5b62000a9c825462000862565b62000aa9828285620009ce565b600060209050601f83116001811462000ae1576000841562000acc578287015190505b62000ad8858262000a4b565b86555062000b48565b601f19841662000af18662000897565b60005b8281101562000b1b5784890151825560018201915060208501945060208101905062000af4565b8683101562000b3b578489015162000b37601f89168262000a2b565b8355505b6001600288020188555050505b505050505050565b6000819050919050565b600062000b7b62000b7562000b6f8462000b50565b6200091f565b620006fd565b9050919050565b62000b8d8162000b5a565b82525050565b600060208201905062000baa600083018462000b82565b92915050565b600073ffffffffffffffffffffffffffffffffffffffff82169050919050565b600062000bdd8262000bb0565b9050919050565b62000bef8162000bd0565b82525050565b600060208201905062000c0c600083018462000be4565b92915050565b600082825260208201905092915050565b7f4f6e6c7920746865206f776e65722063616e2063616c6c20746869732066756e60008201527f6374696f6e000000000000000000000000000000000000000000000000000000602082015250565b600062000c8160258362000c12565b915062000c8e8262000c23565b604082019050919050565b6000602082019050818103600083015262000cb48162000c72565b9050919050565b62000cc681620006fd565b82525050565b600060408201905062000ce3600083018562000cbb565b62000cf2602083018462000cbb565b9392505050565b600062000d0682620006fd565b915062000d1383620006fd565b925082820190508082111562000d2e5762000d2d6200077f565b5b92915050565b600060608201905062000d4b600083018662000be4565b62000d5a602083018562000cbb565b62000d69604083018462000cbb565b949350505050565b600060208201905062000d88600083018462000cbb565b92915050565b60805161155862000daa60003960006104d301526115586000f3fe608060405234801561001057600080fd5b50600436106101005760003560e01c806342966c68116100975780638da5cb5b116100665780638da5cb5b1461028957806395d89b41146102a7578063a9059cbb146102c5578063dd62ed3e146102f557610100565b806342966c681461021757806370a082311461023357806379cc67901461026357806383197ef01461027f57610100565b80631a18e707116100d35780631a18e7071461018f57806323b872dd146101ab578063313ce567146101db578063355274ea146101f957610100565b806306fdde0314610105578063095ea7b3146101235780630ac168a11461015357806318160ddd14610171575b600080fd5b61010d610325565b60405161011a9190611046565b60405180910390f35b61013d60048036038101906101389190611101565b6103b7565b60405161014a919061115c565b60405180910390f35b61015b6103da565b6040516101689190611186565b60405180910390f35b6101796103e0565b6040516101869190611186565b60405180910390f35b6101a960048036038101906101a491906111a1565b6103ea565b005b6101c560048036038101906101c091906111ce565b610497565b6040516101d2919061115c565b60405180910390f35b6101e36104c6565b6040516101f0919061123d565b60405180910390f35b6102016104cf565b60405161020e9190611186565b60405180910390f35b610231600480360381019061022c91906111a1565b6104f7565b005b61024d60048036038101906102489190611258565b61050b565b60405161025a9190611186565b60405180910390f35b61027d60048036038101906102789190611101565b610553565b005b610287610573565b005b61029161063e565b60405161029e91906112a6565b60405180910390f35b6102af610664565b6040516102bc9190611046565b60405180910390f35b6102df60048036038101906102da9190611101565b6106f6565b6040516102ec919061115c565b60405180910390f35b61030f600480360381019061030a91906112c1565b610719565b60405161031c9190611186565b60405180910390f35b60606003805461033490611330565b80601f016020809104026020016040519081016040528092919081815260200182805461036090611330565b80156103ad5780601f10610382576101008083540402835291602001916103ad565b820191906000526020600020905b81548152906001019060200180831161039057829003601f168201915b5050505050905090565b6000806103c26107a0565b90506103cf8185856107a8565b600191505092915050565b60065481565b6000600254905090565b600560009054906101000a900473ffffffffffffffffffffffffffffffffffffffff1673ffffffffffffffffffffffffffffffffffffffff163373ffffffffffffffffffffffffffffffffffffffff161461047a576040517f08c379a0000000000000000000000000000000000000000000000000000000008152600401610471906113d3565b60405180910390fd5b670de0b6b3a76400008161048e9190611422565b60068190555050565b6000806104a26107a0565b90506104af8582856107ba565b6104ba85858561084e565b60019150509392505050565b60006012905090565b60007f0000000000000000000000000000000000000000000000000000000000000000905090565b6105086105026107a0565b82610942565b50565b60008060008373ffffffffffffffffffffffffffffffffffffffff1673ffffffffffffffffffffffffffffffffffffffff168152602001908152602001600020549050919050565b6105658261055f6107a0565b836107ba565b61056f8282610942565b5050565b600560009054906101000a900473ffffffffffffffffffffffffffffffffffffffff1673ffffffffffffffffffffffffffffffffffffffff163373ffffffffffffffffffffffffffffffffffffffff1614610603576040517f08c379a00000000000000000000000000000000000000000000000000000000081526004016105fa906113d3565b60405180910390fd5b600560009054906101000a900473ffffffffffffffffffffffffffffffffffffffff1673ffffffffffffffffffffffffffffffffffffffff16ff5b600560009054906101000a900473ffffffffffffffffffffffffffffffffffffffff1681565b60606004805461067390611330565b80601f016020809104026020016040519081016040528092919081815260200182805461069f90611330565b80156106ec5780601f106106c1576101008083540402835291602001916106ec565b820191906000526020600020905b8154815290600101906020018083116106cf57829003601f168201915b5050505050905090565b6000806107016107a0565b905061070e81858561084e565b600191505092915050565b6000600160008473ffffffffffffffffffffffffffffffffffffffff1673ffffffffffffffffffffffffffffffffffffffff16815260200190815260200160002060008373ffffffffffffffffffffffffffffffffffffffff1673ffffffffffffffffffffffffffffffffffffffff16815260200190815260200160002054905092915050565b600033905090565b6107b583838360016109c4565b505050565b60006107c68484610719565b90507fffffffffffffffffffffffffffffffffffffffffffffffffffffffffffffffff81146108485781811015610838578281836040517ffb8f41b200000000000000000000000000000000000000000000000000000000815260040161082f93929190611473565b60405180910390fd5b610847848484840360006109c4565b5b50505050565b600073ffffffffffffffffffffffffffffffffffffffff168373ffffffffffffffffffffffffffffffffffffffff16036108c05760006040517f96c6fd1e0000000000000000000000000000000000000000000000000000000081526004016108b791906114aa565b60405180910390fd5b600073ffffffffffffffffffffffffffffffffffffffff168273ffffffffffffffffffffffffffffffffffffffff16036109325760006040517fec442f0500000000000000000000000000000000000000000000000000000000815260040161092991906114aa565b60405180910390fd5b61093d838383610b9b565b505050565b600073ffffffffffffffffffffffffffffffffffffffff168273ffffffffffffffffffffffffffffffffffffffff16036109b45760006040517f96c6fd1e0000000000000000000000000000000000000000000000000000000081526004016109ab91906114aa565b60405180910390fd5b6109c082600083610b9b565b5050565b600073ffffffffffffffffffffffffffffffffffffffff168473ffffffffffffffffffffffffffffffffffffffff1603610a365760006040517fe602df05000000000000000000000000000000000000000000000000000000008152600401610a2d91906114aa565b60405180910390fd5b600073ffffffffffffffffffffffffffffffffffffffff168373ffffffffffffffffffffffffffffffffffffffff1603610aa85760006040517f94280d62000000000000000000000000000000000000000000000000000000008152600401610a9f91906114aa565b60405180910390fd5b81600160008673ffffffffffffffffffffffffffffffffffffffff1673ffffffffffffffffffffffffffffffffffffffff16815260200190815260200160002060008573ffffffffffffffffffffffffffffffffffffffff1673ffffffffffffffffffffffffffffffffffffffff168152602001908152602001600020819055508015610b95578273ffffffffffffffffffffffffffffffffffffffff168473ffffffffffffffffffffffffffffffffffffffff167f8c5be1e5ebec7d5bd14f71427d1e84f3dd0314c0f7b2291e5b200ac8c7c3b92584604051610b8c9190611186565b60405180910390a35b50505050565b600073ffffffffffffffffffffffffffffffffffffffff168373ffffffffffffffffffffffffffffffffffffffff1614158015610c0457504173ffffffffffffffffffffffffffffffffffffffff168273ffffffffffffffffffffffffffffffffffffffff1614155b8015610c3d5750600073ffffffffffffffffffffffffffffffffffffffff164173ffffffffffffffffffffffffffffffffffffffff1614155b15610c4b57610c4a610c5b565b5b610c56838383610c69565b505050565b610c6741600654610d0f565b565b610c74838383610d91565b600073ffffffffffffffffffffffffffffffffffffffff168373ffffffffffffffffffffffffffffffffffffffff1603610d0a576000610cb26104cf565b90506000610cbe6103e0565b905081811115610d075780826040517f9e79f854000000000000000000000000000000000000000000000000000000008152600401610cfe9291906114c5565b60405180910390fd5b50505b505050565b600073ffffffffffffffffffffffffffffffffffffffff168273ffffffffffffffffffffffffffffffffffffffff1603610d815760006040517fec442f05000000000000000000000000000000000000000000000000000000008152600401610d7891906114aa565b60405180910390fd5b610d8d60008383610b9b565b5050565b600073ffffffffffffffffffffffffffffffffffffffff168373ffffffffffffffffffffffffffffffffffffffff1603610de3578060026000828254610dd791906114ee565b92505081905550610eb6565b60008060008573ffffffffffffffffffffffffffffffffffffffff1673ffffffffffffffffffffffffffffffffffffffff16815260200190815260200160002054905081811015610e6f578381836040517fe450d38c000000000000000000000000000000000000000000000000000000008152600401610e6693929190611473565b60405180910390fd5b8181036000808673ffffffffffffffffffffffffffffffffffffffff1673ffffffffffffffffffffffffffffffffffffffff16815260200190815260200160002081905550505b600073ffffffffffffffffffffffffffffffffffffffff168273ffffffffffffffffffffffffffffffffffffffff1603610eff5780600260008282540392505081905550610f4c565b806000808473ffffffffffffffffffffffffffffffffffffffff1673ffffffffffffffffffffffffffffffffffffffff168152602001908152602001600020600082825401925050819055505b8173ffffffffffffffffffffffffffffffffffffffff168373ffffffffffffffffffffffffffffffffffffffff167fddf252ad1be2c89b69c2b068fc378daa952ba7f163c4a11628f55a4df523b3ef83604051610fa99190611186565b60405180910390a3505050565b600081519050919050565b600082825260208201905092915050565b60005b83811015610ff0578082015181840152602081019050610fd5565b60008484015250505050565b6000601f19601f8301169050919050565b600061101882610fb6565b6110228185610fc1565b9350611032818560208601610fd2565b61103b81610ffc565b840191505092915050565b60006020820190508181036000830152611060818461100d565b905092915050565b600080fd5b600073ffffffffffffffffffffffffffffffffffffffff82169050919050565b60006110988261106d565b9050919050565b6110a88161108d565b81146110b357600080fd5b50565b6000813590506110c58161109f565b92915050565b6000819050919050565b6110de816110cb565b81146110e957600080fd5b50565b6000813590506110fb816110d5565b92915050565b6000806040838503121561111857611117611068565b5b6000611126858286016110b6565b9250506020611137858286016110ec565b9150509250929050565b60008115159050919050565b61115681611141565b82525050565b6000602082019050611171600083018461114d565b92915050565b611180816110cb565b82525050565b600060208201905061119b6000830184611177565b92915050565b6000602082840312156111b7576111b6611068565b5b60006111c5848285016110ec565b91505092915050565b6000806000606084860312156111e7576111e6611068565b5b60006111f5868287016110b6565b9350506020611206868287016110b6565b9250506040611217868287016110ec565b9150509250925092565b600060ff82169050919050565b61123781611221565b82525050565b6000602082019050611252600083018461122e565b92915050565b60006020828403121561126e5761126d611068565b5b600061127c848285016110b6565b91505092915050565b60006112908261106d565b9050919050565b6112a081611285565b82525050565b60006020820190506112bb6000830184611297565b92915050565b600080604083850312156112d8576112d7611068565b5b60006112e6858286016110b6565b92505060206112f7858286016110b6565b9150509250929050565b7f4e487b7100000000000000000000000000000000000000000000000000000000600052602260045260246000fd5b6000600282049050600182168061134857607f821691505b60208210810361135b5761135a611301565b5b50919050565b7f4f6e6c7920746865206f776e65722063616e2063616c6c20746869732066756e60008201527f6374696f6e000000000000000000000000000000000000000000000000000000602082015250565b60006113bd602583610fc1565b91506113c882611361565b604082019050919050565b600060208201905081810360008301526113ec816113b0565b9050919050565b7f4e487b7100000000000000000000000000000000000000000000000000000000600052601160045260246000fd5b600061142d826110cb565b9150611438836110cb565b9250828202611446816110cb565b9150828204841483151761145d5761145c6113f3565b5b5092915050565b61146d8161108d565b82525050565b60006060820190506114886000830186611464565b6114956020830185611177565b6114a26040830184611177565b949350505050565b60006020820190506114bf6000830184611464565b92915050565b60006040820190506114da6000830185611177565b6114e76020830184611177565b9392505050565b60006114f9826110cb565b9150611504836110cb565b925082820190508082111561151c5761151b6113f3565b5b9291505056fea26469706673582212204fdda7b1b04ba44687cf884892d2f518e6fafeff58f35cd16de1ecdb8b5a99e664736f6c63430008140033",
  "linkReferences": {},
  "deployedLinkReferences": {}
}